{
  "contractName": "FractionalWaterAllocation",
  "abi": [
    {
      "inputs": [
        {
          "internalType": "address",
          "name": "_owner",
          "type": "address"
        },
        {
          "internalType": "address[]",
          "name": "_beneficiaries",
          "type": "address[]"
        },
        {
          "internalType": "address",
          "name": "_mediator",
          "type": "address"
        },
        {
          "internalType": "address",
          "name": "_observer",
          "type": "address"
        },
        {
          "internalType": "string",
          "name": "_reservoirCapacityUnit",
          "type": "string"
        },
        {
          "internalType": "uint256",
          "name": "_reservoirCapacity",
          "type": "uint256"
        }
      ],
      "payable": false,
      "stateMutability": "nonpayable",
      "type": "constructor"
    },
    {
      "anonymous": false,
      "inputs": [
        {
          "indexed": false,
          "internalType": "uint256",
          "name": "waterAllocationProposalCurrentVersion",
          "type": "uint256"
        },
        {
          "indexed": true,
          "internalType": "uint256",
          "name": "votingStartTime",
          "type": "uint256"
        },
        {
          "indexed": true,
          "internalType": "uint256",
          "name": "votingEndTime",
          "type": "uint256"
        },
        {
          "indexed": true,
          "internalType": "address",
          "name": "proposedBy",
          "type": "address"
        },
        {
          "indexed": false,
          "internalType": "address",
          "name": "observedBy",
          "type": "address"
        }
      ],
      "name": "NewAllocationSchemeProposed",
      "type": "event"
    },
    {
      "anonymous": false,
      "inputs": [
        {
          "indexed": true,
          "internalType": "uint256",
          "name": "version",
          "type": "uint256"
        },
        {
          "indexed": true,
          "internalType": "uint256",
          "name": "waterLevel",
          "type": "uint256"
        },
        {
          "indexed": true,
          "internalType": "uint256",
          "name": "time",
          "type": "uint256"
        }
      ],
      "name": "ReservoirLevelChange",
      "type": "event"
    },
    {
      "anonymous": false,
      "inputs": [
        {
          "indexed": true,
          "internalType": "address",
          "name": "votedBy",
          "type": "address"
        },
        {
          "indexed": false,
          "internalType": "uint256",
          "name": "votedAt",
          "type": "uint256"
        }
      ],
      "name": "VoteForNewAllocationProposal",
      "type": "event"
    },
    {
      "anonymous": false,
      "inputs": [
        {
          "indexed": true,
          "internalType": "uint256",
          "name": "waterAllocationCurrentVersion",
          "type": "uint256"
        },
        {
          "indexed": false,
          "internalType": "address",
          "name": "mediatedBy",
          "type": "address"
        },
        {
          "indexed": false,
          "internalType": "address",
          "name": "observedBy",
          "type": "address"
        },
        {
          "indexed": false,
          "internalType": "uint256",
          "name": "proposedTime",
          "type": "uint256"
        },
        {
          "indexed": true,
          "internalType": "uint256",
          "name": "allocationTime",
          "type": "uint256"
        }
      ],
      "name": "VotingConcluded",
      "type": "event"
    },
    {
      "constant": false,
      "inputs": [
        {
          "internalType": "uint256",
          "name": "waterLevel",
          "type": "uint256"
        }
      ],
      "name": "updateReservoirWaterLevel",
      "outputs": [
        {
          "internalType": "bool",
          "name": "isSuccess",
          "type": "bool"
        }
      ],
      "payable": false,
      "stateMutability": "nonpayable",
      "type": "function"
    },
    {
      "constant": true,
      "inputs": [],
      "name": "retrieveReservoirWaterLevel",
      "outputs": [
        {
          "internalType": "uint256",
          "name": "version",
          "type": "uint256"
        },
        {
          "internalType": "uint256",
          "name": "waterLevel",
          "type": "uint256"
        },
        {
          "internalType": "address",
          "name": "observedBy",
          "type": "address"
        },
        {
          "internalType": "uint256",
          "name": "observedTime",
          "type": "uint256"
        }
      ],
      "payable": false,
      "stateMutability": "view",
      "type": "function"
    },
    {
      "constant": false,
      "inputs": [
        {
          "internalType": "address[]",
          "name": "beneficiaries",
          "type": "address[]"
        },
        {
          "internalType": "uint256[]",
          "name": "fractions",
          "type": "uint256[]"
        },
        {
          "internalType": "uint256",
          "name": "votingStartTime",
          "type": "uint256"
        },
        {
          "internalType": "uint256",
          "name": "votingEndTime",
          "type": "uint256"
        },
        {
          "internalType": "address",
          "name": "observedBy",
          "type": "address"
        }
      ],
      "name": "proposeNewAllocation",
      "outputs": [
        {
          "internalType": "bool",
          "name": "isSuccess",
          "type": "bool"
        }
      ],
      "payable": false,
      "stateMutability": "nonpayable",
      "type": "function"
    },
    {
      "constant": true,
      "inputs": [],
      "name": "retrieveAllocationProposal",
      "outputs": [
        {
          "internalType": "uint256",
          "name": "proposalVersion",
          "type": "uint256"
        },
        {
          "internalType": "address[]",
          "name": "beneficiaries",
          "type": "address[]"
        },
        {
          "internalType": "uint256[]",
          "name": "fractions",
          "type": "uint256[]"
        },
        {
          "internalType": "uint256",
          "name": "votingStartTime",
          "type": "uint256"
        },
        {
          "internalType": "uint256",
          "name": "votingEndTime",
          "type": "uint256"
        },
        {
          "internalType": "address",
          "name": "mediatedBy",
          "type": "address"
        },
        {
          "internalType": "address",
          "name": "observedBy",
          "type": "address"
        },
        {
          "internalType": "bool[]",
          "name": "votes",
          "type": "bool[]"
        },
        {
          "internalType": "bool",
          "name": "proposalAcceptedByBeneficiaries",
          "type": "bool"
        }
      ],
      "payable": false,
      "stateMutability": "view",
      "type": "function"
    },
    {
      "constant": true,
      "inputs": [],
      "name": "retrieveCurrentTimestamp",
      "outputs": [
        {
          "internalType": "uint256",
          "name": "currentTimestamp",
          "type": "uint256"
        }
      ],
      "payable": false,
      "stateMutability": "view",
      "type": "function"
    },
    {
      "constant": false,
      "inputs": [],
      "name": "voteForNewAllocationProposal",
      "outputs": [
        {
          "internalType": "bool",
          "name": "isSuccess",
          "type": "bool"
        }
      ],
      "payable": false,
      "stateMutability": "nonpayable",
      "type": "function"
    },
    {
      "constant": false,
      "inputs": [],
      "name": "concludeVoting",
      "outputs": [
        {
          "internalType": "bool",
          "name": "isSuccess",
          "type": "bool"
        }
      ],
      "payable": false,
      "stateMutability": "nonpayable",
      "type": "function"
    },
    {
      "constant": true,
      "inputs": [],
      "name": "retrieveWaterAllocation",
      "outputs": [
        {
          "internalType": "uint256",
          "name": "version",
          "type": "uint256"
        },
        {
          "internalType": "address[]",
          "name": "beneficiaries",
          "type": "address[]"
        },
        {
          "internalType": "uint256[]",
          "name": "fractions",
          "type": "uint256[]"
        },
        {
          "internalType": "uint256",
          "name": "proposedTime",
          "type": "uint256"
        },
        {
          "internalType": "uint256",
          "name": "allocationTime",
          "type": "uint256"
        },
        {
          "internalType": "address",
          "name": "mediatedBy",
          "type": "address"
        },
        {
          "internalType": "address",
          "name": "observedBy",
          "type": "address"
        }
      ],
      "payable": false,
      "stateMutability": "view",
      "type": "function"
    }
  ],
  "bytecode": "0x60806040523480156200001157600080fd5b506040516200318638038062003186833981810160405260c08110156200003757600080fd5b8101908080519060200190929190805160405193929190846401000000008211156200006257600080fd5b838201915060208201858111156200007957600080fd5b82518660208202830111640100000000821117156200009757600080fd5b8083526020830192505050908051906020019060200280838360005b83811015620000d0578082015181840152602081019050620000b3565b505050509050016040526020018051906020019092919080519060200190929190805160405193929190846401000000008211156200010e57600080fd5b838201915060208201858111156200012557600080fd5b82518660018202830111640100000000821117156200014357600080fd5b8083526020830192505050908051906020019080838360005b83811015620001795780820151818401526020810190506200015c565b50505050905090810190601f168015620001a75780820380516001836020036101000a031916815260200191505b506040526020018051906020019092919050505084848460018351116200021a576040517f08c379a0000000000000000000000000000000000000000000000000000000008152600401808060200182810382526022815260200180620031646022913960400191505060405180910390fd5b84846040518060400160405280600481526020017f66656574000000000000000000000000000000000000000000000000000000008152508051906020012082805190602001201480620002b057506040518060400160405280600581526020017f6d65746572000000000000000000000000000000000000000000000000000000815250805190602001208280519060200120145b62000307576040517f08c379a0000000000000000000000000000000000000000000000000000000008152600401808060200182810382526038815260200180620030fc6038913960400191505060405180910390fd5b6000811162000362576040517f08c379a0000000000000000000000000000000000000000000000000000000008152600401808060200182810382526030815260200180620031346030913960400191505060405180910390fd5b8a6000806101000a81548173ffffffffffffffffffffffffffffffffffffffff021916908373ffffffffffffffffffffffffffffffffffffffff16021790555060008090505b8a51811015620004c957604051806080016040528060405180602001604052806000815250815260200160006002811115620003e057fe5b815260200160011515815260200142815250600160008d84815181106200040357fe5b602002602001015173ffffffffffffffffffffffffffffffffffffffff1673ffffffffffffffffffffffffffffffffffffffff168152602001908152602001600020600082015181600001908051906020019062000463929190620006f4565b5060208201518160010160006101000a81548160ff021916908360028111156200048957fe5b021790555060408201518160010160016101000a81548160ff021916908315150217905550606082015181600201559050508080600101915050620003a8565b604051806080016040528060405180602001604052806000815250815260200160016002811115620004f757fe5b815260200160011515815260200142815250600160008c73ffffffffffffffffffffffffffffffffffffffff1673ffffffffffffffffffffffffffffffffffffffff168152602001908152602001600020600082015181600001908051906020019062000566929190620006f4565b5060208201518160010160006101000a81548160ff021916908360028111156200058c57fe5b021790555060408201518160010160016101000a81548160ff021916908315150217905550606082015181600201559050506040518060800160405280604051806020016040528060008152508152602001600280811115620005eb57fe5b815260200160011515815260200142815250600160008b73ffffffffffffffffffffffffffffffffffffffff1673ffffffffffffffffffffffffffffffffffffffff16815260200190815260200160002060008201518160000190805190602001906200065a929190620006f4565b5060208201518160010160006101000a81548160ff021916908360028111156200068057fe5b021790555060408201518160010160016101000a81548160ff021916908315150217905550606082015181600201559050508760029080519060200190620006ca9291906200077b565b5086600381905550600060048190555060006006819055505050505050505050505050506200082a565b828054600181600116156101000203166002900490600052602060002090601f016020900481019282601f106200073757805160ff191683800117855562000768565b8280016001018555821562000768579182015b82811115620007675782518255916020019190600101906200074a565b5b50905062000777919062000802565b5090565b828054600181600116156101000203166002900490600052602060002090601f016020900481019282601f10620007be57805160ff1916838001178555620007ef565b82800160010185558215620007ef579182015b82811115620007ee578251825591602001919060010190620007d1565b5b509050620007fe919062000802565b5090565b6200082791905b808211156200082357600081600090555060010162000809565b5090565b90565b6128c2806200083a6000396000f3fe608060405234801561001057600080fd5b50600436106100885760003560e01c80636fc470501161005b5780636fc470501461043f578063ba3341b814610561578063bd910e5414610583578063c3b7a72f146105a557610088565b806306faeacd1461008d578063121cd834146102025780633b2302ab146102615780636177589b146103f9575b600080fd5b6100956105c3565b604051808a815260200180602001806020018981526020018881526020018773ffffffffffffffffffffffffffffffffffffffff1673ffffffffffffffffffffffffffffffffffffffff1681526020018673ffffffffffffffffffffffffffffffffffffffff1673ffffffffffffffffffffffffffffffffffffffff168152602001806020018515151515815260200184810384528c818151815260200191508051906020019060200280838360005b83811015610160578082015181840152602081019050610145565b5050505090500184810383528b818151815260200191508051906020019060200280838360005b838110156101a2578082015181840152602081019050610187565b50505050905001848103825286818151815260200191508051906020019060200280838360005b838110156101e45780820151818401526020810190506101c9565b505050509050019c5050505050505050505050505060405180910390f35b61020a6108a7565b604051808581526020018481526020018373ffffffffffffffffffffffffffffffffffffffff1673ffffffffffffffffffffffffffffffffffffffff16815260200182815260200194505050505060405180910390f35b6103df600480360360a081101561027757600080fd5b810190808035906020019064010000000081111561029457600080fd5b8201836020820111156102a657600080fd5b803590602001918460208302840111640100000000831117156102c857600080fd5b919080806020026020016040519081016040528093929190818152602001838360200280828437600081840152601f19601f8201169050808301925050505050505091929192908035906020019064010000000081111561032857600080fd5b82018360208201111561033a57600080fd5b8035906020019184602083028401116401000000008311171561035c57600080fd5b919080806020026020016040519081016040528093929190818152602001838360200280828437600081840152601f19601f8201169050808301925050505050505091929192908035906020019092919080359060200190929190803573ffffffffffffffffffffffffffffffffffffffff169060200190929190505050610981565b604051808215151515815260200191505060405180910390f35b6104256004803603602081101561040f57600080fd5b81019080803590602001909291905050506112ec565b604051808215151515815260200191505060405180910390f35b610447611557565b6040518088815260200180602001806020018781526020018681526020018573ffffffffffffffffffffffffffffffffffffffff1673ffffffffffffffffffffffffffffffffffffffff1681526020018473ffffffffffffffffffffffffffffffffffffffff1673ffffffffffffffffffffffffffffffffffffffff168152602001838103835289818151815260200191508051906020019060200280838360005b838110156105045780820151818401526020810190506104e9565b50505050905001838103825288818151815260200191508051906020019060200280838360005b8381101561054657808201518184015260208101905061052b565b50505050905001995050505050505050505060405180910390f35b6105696117ba565b604051808215151515815260200191505060405180910390f35b61058b611a5e565b604051808215151515815260200191505060405180910390f35b6105ad6121cd565b6040518082815260200191505060405180910390f35b600060608060008060008060606000806009541161062c576040517f08c379a000000000000000000000000000000000000000000000000000000000815260040180806020018281038252605b815260200180612367605b913960600191505060405180910390fd5b60016009540398506000600860008b8152602001908152602001600020905080600201805490506040519080825280602002602001820160405280156106815781602001602082028038833980820191505090505b5092508060020180548060200260200160405190810160405280929190818152602001828054801561070857602002820191906000526020600020905b8160009054906101000a900473ffffffffffffffffffffffffffffffffffffffff1673ffffffffffffffffffffffffffffffffffffffff16815260200190600101908083116106be575b505050505098508060030180548060200260200160405190810160405280929190818152602001828054801561075d57602002820191906000526020600020905b815481526020019060010190808311610749575b505050505097508060040160009054906101000a900473ffffffffffffffffffffffffffffffffffffffff1694508060050160009054906101000a900473ffffffffffffffffffffffffffffffffffffffff169350806006015496508060070154955060008090505b8160020180549050811015610886578160010160008360020183815481106107ea57fe5b9060005260206000200160009054906101000a900473ffffffffffffffffffffffffffffffffffffffff1673ffffffffffffffffffffffffffffffffffffffff1673ffffffffffffffffffffffffffffffffffffffff16815260200190815260200160002060009054906101000a900460ff1684828151811061086957fe5b6020026020010190151590811515815250508060010190506107c6565b508060080160009054906101000a900460ff16915050909192939495969798565b600080600080600060045411610908576040517f08c379a00000000000000000000000000000000000000000000000000000000081526004018080602001828103825260328152602001806126ec6032913960400191505060405180910390fd5b6001600454039350600560008581526020019081526020016000206000015492506005600085815260200190815260200160002060010160009054906101000a900473ffffffffffffffffffffffffffffffffffffffff1691506005600085815260200190815260200160002060020154905090919293565b60008585858585336000806000905086518851146109ea576040517f08c379a000000000000000000000000000000000000000000000000000000000815260040180806020018281038252604681526020018061248e6046913960600191505060405180910390fd5b600091505b8751821015610c085760006002811115610a0557fe5b600160008a8581518110610a1557fe5b602002602001015173ffffffffffffffffffffffffffffffffffffffff1673ffffffffffffffffffffffffffffffffffffffff16815260200190815260200160002060010160009054906101000a900460ff166002811115610a7357fe5b148015610ae6575060011515600160008a8581518110610a8f57fe5b602002602001015173ffffffffffffffffffffffffffffffffffffffff1673ffffffffffffffffffffffffffffffffffffffff16815260200190815260200160002060010160019054906101000a900460ff161515145b8260405160200180807f42656e65666963696172792070726f766964656420617420696e646578200000815250601e01828152602001807f2069732065697468657220696e76616c6964206f7220696e6163746976650000815250601e0191505060405160208183030381529060405290610bfc576040517f08c379a00000000000000000000000000000000000000000000000000000000081526004018080602001828103825283818151815260200191508051906020019080838360005b83811015610bc1578082015181840152602081019050610ba6565b50505050905090810190601f168015610bee5780820380516001836020036101000a031916815260200191505b509250505060405180910390fd5b508160010191506109ef565b60016002811115610c1557fe5b600160008573ffffffffffffffffffffffffffffffffffffffff1673ffffffffffffffffffffffffffffffffffffffff16815260200190815260200160002060010160009054906101000a900460ff166002811115610c7057fe5b148015610cd0575060011515600160008573ffffffffffffffffffffffffffffffffffffffff1673ffffffffffffffffffffffffffffffffffffffff16815260200190815260200160002060010160019054906101000a900460ff161515145b610d25576040517f08c379a000000000000000000000000000000000000000000000000000000000815260040180806020018281038252603b8152602001806123e7603b913960400191505060405180910390fd5b600280811115610d3157fe5b600160008673ffffffffffffffffffffffffffffffffffffffff1673ffffffffffffffffffffffffffffffffffffffff16815260200190815260200160002060010160009054906101000a900460ff166002811115610d8c57fe5b148015610dec575060011515600160008673ffffffffffffffffffffffffffffffffffffffff1673ffffffffffffffffffffffffffffffffffffffff16815260200190815260200160002060010160019054906101000a900460ff161515145b610e41576040517f08c379a00000000000000000000000000000000000000000000000000000000081526004018080602001828103825260428152602001806124d46042913960600191505060405180910390fd5b60006009541115610ec057426008600060016009540381526020019081526020016000206007015410610ebf576040517f08c379a00000000000000000000000000000000000000000000000000000000081526004018080602001828103825260338152602001806126b96033913960400191505060405180910390fd5b5b848610610f18576040517f08c379a000000000000000000000000000000000000000000000000000000000815260040180806020018281038252603a815260200180612454603a913960400191505060405180910390fd5b600091505b8651821015611079576000878381518110610f3457fe5b6020026020010151118015610f5c57506064878381518110610f5257fe5b6020026020010151105b8260405160200180807f416c6c6f636174696f6e206672616374696f6e20617420696e64657820000000815250601d01828152602001806123c26025913960250191505060405160208183030381529060405290611055576040517f08c379a00000000000000000000000000000000000000000000000000000000081526004018080602001828103825283818151815260200191508051906020019080838360005b8381101561101a578082015181840152602081019050610fff565b50505050905090810190601f1680156110475780820380516001836020036101000a031916815260200191505b509250505060405180910390fd5b5086828151811061106257fe5b602002602001015181019050816001019150610f1d565b606481146110d2576040517f08c379a00000000000000000000000000000000000000000000000000000000081526004018080602001828103825260298152602001806126476029913960400191505060405180910390fd5b8d60086000600954815260200190815260200160002060020190805190602001906110fe9291906121d5565b508c600860006009548152602001908152602001600020600301908051906020019061112b92919061225f565b503360086000600954815260200190815260200160002060040160006101000a81548173ffffffffffffffffffffffffffffffffffffffff021916908373ffffffffffffffffffffffffffffffffffffffff1602179055508960086000600954815260200190815260200160002060050160006101000a81548173ffffffffffffffffffffffffffffffffffffffff021916908373ffffffffffffffffffffffffffffffffffffffff1602179055508b600860006009548152602001908152602001600020600601819055508a60086000600954815260200190815260200160002060070181905550600060086000600954815260200190815260200160002060080160006101000a81548160ff0219169083151502179055503373ffffffffffffffffffffffffffffffffffffffff168b8d7fb3905e627787c281be364207498558b3ad4d3894cbf47f07dc6630268b82fc6e6009548e604051808381526020018273ffffffffffffffffffffffffffffffffffffffff1673ffffffffffffffffffffffffffffffffffffffff1681526020019250505060405180910390a460016009540160098190555060019850505050505050505095945050505050565b600033826000600160008473ffffffffffffffffffffffffffffffffffffffff1673ffffffffffffffffffffffffffffffffffffffff168152602001908152602001600020905060028081111561133f57fe5b8160010160009054906101000a900460ff16600281111561135c57fe5b14801561137e5750600115158160010160019054906101000a900460ff161515145b6113d3576040517f08c379a00000000000000000000000000000000000000000000000000000000081526004018080602001828103825260498152602001806126706049913960600191505060405180910390fd5b6000821180156113e557506003548211155b61143a576040517f08c379a000000000000000000000000000000000000000000000000000000000815260040180806020018281038252604d81526020018061255d604d913960600191505060405180910390fd5b60405180606001604052808681526020013373ffffffffffffffffffffffffffffffffffffffff168152602001428152506005600060045481526020019081526020016000206000820151816000015560208201518160010160006101000a81548173ffffffffffffffffffffffffffffffffffffffff021916908373ffffffffffffffffffffffffffffffffffffffff1602179055506040820151816002015590505060056000600454815260200190815260200160002060020154600560006004548152602001908152602001600020600001546004547f8239c9e92f313711c250eb4361c193496631be64e2b99c64ecace01b1f318f6860405160405180910390a460016004540160048190555060019350505050919050565b60006060806000806000806000600654116115bd576040517f08c379a000000000000000000000000000000000000000000000000000000000815260040180806020018281038252608d81526020018061271e608d913960a00191505060405180910390fd5b600160065403965060006007600089815260200190815260200160002090508060010180548060200260200160405190810160405280929190818152602001828054801561166057602002820191906000526020600020905b8160009054906101000a900473ffffffffffffffffffffffffffffffffffffffff1673ffffffffffffffffffffffffffffffffffffffff1681526020019060010190808311611616575b50505050509650806001018054905060405190808252806020026020018201604052801561169d5781602001602082028038833980820191505090505b5095508060020160009054906101000a900473ffffffffffffffffffffffffffffffffffffffff1692508060030160009054906101000a900473ffffffffffffffffffffffffffffffffffffffff169150806004015494508060050154935060008090505b81600101805490508110156117af5781600001600083600101838154811061172657fe5b9060005260206000200160009054906101000a900473ffffffffffffffffffffffffffffffffffffffff1673ffffffffffffffffffffffffffffffffffffffff1673ffffffffffffffffffffffffffffffffffffffff1681526020019081526020016000205487828151811061179857fe5b602002602001018181525050806001019050611702565b505090919293949596565b600033600060016009540390506000600160008473ffffffffffffffffffffffffffffffffffffffff1673ffffffffffffffffffffffffffffffffffffffff16815260200190815260200160002090506000600281111561181757fe5b8160010160009054906101000a900460ff16600281111561183457fe5b1480156118565750600115158160010160019054906101000a900460ff161515145b6118ab576040517f08c379a000000000000000000000000000000000000000000000000000000000815260040180806020018281038252603f8152602001806125aa603f913960400191505060405180910390fd5b600060095411611906576040517f08c379a00000000000000000000000000000000000000000000000000000000081526004018080602001828103825260608152602001806127ab6060913960600191505060405180910390fd5b4260086000848152602001908152602001600020600601541080156119405750426008600084815260200190815260200160002060070154115b611995576040517f08c379a00000000000000000000000000000000000000000000000000000000081526004018080602001828103825260328152602001806124226032913960400191505060405180910390fd5b600160086000600160095403815260200190815260200160002060010160003373ffffffffffffffffffffffffffffffffffffffff1673ffffffffffffffffffffffffffffffffffffffff16815260200190815260200160002060006101000a81548160ff0219169083151502179055503373ffffffffffffffffffffffffffffffffffffffff167f9a12062608a4d0f0c3ca7a7447ebfd5e35eed716f2701e227f77e94f52fc40e0426040518082815260200191505060405180910390a26001935050505090565b600033600060095411611abc576040517f08c379a000000000000000000000000000000000000000000000000000000000815260040180806020018281038252605e8152602001806125e9605e913960600191505060405180910390fd5b600060086000600160095403815260200190815260200160002090508173ffffffffffffffffffffffffffffffffffffffff168160040160009054906101000a900473ffffffffffffffffffffffffffffffffffffffff1673ffffffffffffffffffffffffffffffffffffffff1614611b80576040517f08c379a00000000000000000000000000000000000000000000000000000000081526004018080602001828103825260478152602001806125166047913960600191505060405180910390fd5b42816007015410611bdc576040517f08c379a000000000000000000000000000000000000000000000000000000000815260040180806020018281038252608381526020018061280b6083913960a00191505060405180910390fd5b60008090505b8160020180549050811015611e0a5760011515826001016000846002018481548110611c0a57fe5b9060005260206000200160009054906101000a900473ffffffffffffffffffffffffffffffffffffffff1673ffffffffffffffffffffffffffffffffffffffff1673ffffffffffffffffffffffffffffffffffffffff16815260200190815260200160002060009054906101000a900460ff16151514826002018281548110611c8f57fe5b9060005260206000200160009054906101000a900473ffffffffffffffffffffffffffffffffffffffff1660405160200180807f42656e6566696369617279200000000000000000000000000000000000000000815250600c018273ffffffffffffffffffffffffffffffffffffffff1673ffffffffffffffffffffffffffffffffffffffff1660601b8152601401807f20686173206e6f74206361737420746865697220766f7465207965742e000000815250601d0191505060405160208183030381529060405290611dfe576040517f08c379a00000000000000000000000000000000000000000000000000000000081526004018080602001828103825283818151815260200191508051906020019080838360005b83811015611dc3578082015181840152602081019050611da8565b50505050905090810190601f168015611df05780820380516001836020036101000a031916815260200191505b509250505060405180910390fd5b50806001019050611be2565b506000600860006001600954038152602001908152602001600020905060008090505b8160020180549050811015611ef357816003018181548110611e4b57fe5b90600052602060002001546007600060065481526020019081526020016000206000016000846002018481548110611e7f57fe5b9060005260206000200160009054906101000a900473ffffffffffffffffffffffffffffffffffffffff1673ffffffffffffffffffffffffffffffffffffffff1673ffffffffffffffffffffffffffffffffffffffff16815260200190815260200160002081905550806001019050611e2d565b5080600201600760006006548152602001908152602001600020600101908054611f1e9291906122ac565b508060040160009054906101000a900473ffffffffffffffffffffffffffffffffffffffff1660076000600654815260200190815260200160002060020160006101000a81548173ffffffffffffffffffffffffffffffffffffffff021916908373ffffffffffffffffffffffffffffffffffffffff1602179055508060050160009054906101000a900473ffffffffffffffffffffffffffffffffffffffff1660076000600654815260200190815260200160002060030160006101000a81548173ffffffffffffffffffffffffffffffffffffffff021916908373ffffffffffffffffffffffffffffffffffffffff16021790555080600601546007600060065481526020019081526020016000206004018190555080600701546007600060065481526020019081526020016000206005018190555060018160080160006101000a81548160ff021916908315150217905550600760006006548152602001908152602001600020600501546006547fe5e941a14bd15fdd01d4deb43aa818bcc0fc47dd8bd470469698cc187a1317f660076000600654815260200190815260200160002060020160009054906101000a900473ffffffffffffffffffffffffffffffffffffffff1660076000600654815260200190815260200160002060030160009054906101000a900473ffffffffffffffffffffffffffffffffffffffff1660076000600654815260200190815260200160002060040154604051808473ffffffffffffffffffffffffffffffffffffffff1673ffffffffffffffffffffffffffffffffffffffff1681526020018373ffffffffffffffffffffffffffffffffffffffff1673ffffffffffffffffffffffffffffffffffffffff168152602001828152602001935050505060405180910390a36001600654016006819055506001935050505090565b600042905090565b82805482825590600052602060002090810192821561224e579160200282015b8281111561224d5782518260006101000a81548173ffffffffffffffffffffffffffffffffffffffff021916908373ffffffffffffffffffffffffffffffffffffffff160217905550916020019190600101906121f5565b5b50905061225b91906122fe565b5090565b82805482825590600052602060002090810192821561229b579160200282015b8281111561229a57825182559160200191906001019061227f565b5b5090506122a89190612341565b5090565b8280548282559060005260206000209081019282156122ed5760005260206000209182015b828111156122ec5782548255916001019190600101906122d1565b5b5090506122fa91906122fe565b5090565b61233e91905b8082111561233a57600081816101000a81549073ffffffffffffffffffffffffffffffffffffffff021916905550600101612304565b5090565b90565b61236391905b8082111561235f576000816000905550600101612347565b5090565b9056fe4e6f20616c6c6f636174696f6e732070726f706f73656420736f206661722e20506c6561736520636f6d65206261636b206865726520616674657220616e20616c6c6f636174696f6e20706c616e2069732070726f706f7365642e206e6565647320746f206265206b6579656420696e2070726f7065726c7920666f726d617456616c6964206d65646961746f722063616e206f6e6c792070726f706f7365206e657720776174657220616c6c6f636174696f6e20736368656d6545697468657220766f74696e6720686173206e6f7420626567756e20796574206f7220636c6f73656420616c72656164792e566f74696e6720656e642074696d65206e6565647320746f2062652067726561746572207468616e20766f74696e672073746172742074696d654e756d626572206f662062656e6566696369617269657320616e6420616c6c6f636174696f6e206672616374696f6e2070726f706f73616c7320646f206e6f74206d6174636856616c6964206f627365727665722063616e206f6e6c7920706172746963697061746520696e206e657720776174657220616c6c6f636174696f6e20736368656d6556616c6964206d65646961746f722063616e206f6e6c7920636f6e636c75646520766f74696e6720666f72206e657720776174657220616c6c6f636174696f6e20736368656d655761746572206c6576656c206e6565647320746f2062652067726561746572207468616e203020616e64206c657373207468616e20746f74616c207265736572766f697220636170616369747956616c69642062656e65666963696172792063616e206f6e6c7920766f746520666f72206e657720776174657220616c6c6f636174696f6e20736368656d654e6f20616c6c6f636174696f6e20686173206265656e2070726f706f736564207965742e20546865206d65646961746f72206e6565647320746f2070726f706f736520616e20616c6c6f636174696f6e20736368656d652066697273742e416c6c6f636174696f6e206672616374696f6e73206e6f742073756d6d696e67207570746f206f6e6556616c6964206f627365727665722063616e206f6e6c792070726f766964652061207265717565737420746f20757064617465207265736572766f6972207761746572206c6576656c546865726520697320616e6f746865722070726f706f73616c2063757272656e746c7920696e20766f74696e672073746167655265736572766f6972207761746572206c6576656c20686173206e6f74206265656e207570646174656420736f206661722e416c6c6f636174696f6e732061677265656d656e7420756e617661696c61626c6520617420746865206d6f6d656e742e20506c6561736520636f6d65206261636b206865726520616674657220616e20616c6c6f636174696f6e2069732070726f706f73656420616e6420766f74696e6720636f6e636c7564656420666f72207468652070726f706f73616c2e4e6f20616c6c6f636174696f6e2070726f706f73656420736f206661722e20596f75206e65656420746f207761697420756e74696c20746865206d65646961746f722070726f706f73657320616e20616c6c6f636174696f6e20736368656d655468657265206973207374696c6c20736f6d652074696d65206c65667420666f7220766f74696e6720746f20636f6e636c7564652e20596f75206e65656420746f207761697420756e74696c2074686520766f74696e6720656e642074696d652070726f706f73656420696e2074686520616c6c6f636174696f6e20736368656d652ea265627a7a723158204edc3c75869e0522f0de0d5316ba7dd91a2a6daf0f2b8237e5ad2c5d9dd629e564736f6c634300051000325265736572766f697220636170616369747920756e6974206e6565647320746f206265206569746865722066656574206f72206d657465725265736572766f6972206361706163697479206e6565647320746f2062652067726561746572207468616e207a65726f41746c656173742074776f2062656e65666963696172696573207265717569726564",
  "source": "// SPDX-License-Identifier: MIT\npragma solidity >=0.4.22 <0.8.0;\n\ncontract FractionalWaterAllocation {\n\n    // User roles\n    enum Role {\n        Beneficiary,\n        Mediator,\n        Observer\n    }\n\n\n    // Definitions of users in the contract\n\n    struct User {\n        string name;\n        Role role;\n        bool isActive;\n        uint activeSince; // Unix timestamp \n    }\n    \n    address owner;\n\n    mapping(address => User) users;\n\n    // Measurement unit of the reservoir\n\n    string reservoirCapacityUnit;\n\n    // Reservoir state representation\n\n    uint totalReservoirCapacity; // Ideally we want to save totalCapacity as a real number(ufixed type in solidity). For example 99.50. \n    // But solidity cannot support ufixed types yet so we fallback to using uint. The value stored in totalReservoirCapacity is\n    // interpreted as 2 digits from the right for decimal part and the rest for magnitude part. For example the number 299.50 needs to stored as 29950\n    \n    uint reservoirStateVersion;\n    struct ReservoirState {\n        uint waterLevel;\n        address observedBy;\n        uint observedTime; // Unix timestamp\n    }\n\n    // Timeline of reservoir state changes.\n\n    mapping(uint => ReservoirState) reservoirStateHistory;\n\n    // Beneficiary water entitlement representation\n\n    uint waterAllocationCurrentVersion;\n    struct WaterAllocation {\n        mapping(address => uint) allocations; // Ideally we want to save allocations as a real number(ufixed type in solidity). For example 0.25 or 0.50. \n    // But solidity cannot support ufixed types yet so we fallback to using uint. The value stored in allocations is\n    // interpreted as 2 digits from the right for decimal part and with a leading zero. For example the fraction 0.50 needs to stored as 050 (or simply 50)\n    // and 0.01 as 001 (or simply 1). To ensure the fractions are keyed in properly we will add them and see if the sum is 100.\n        address[] beneficiaries;\n        address mediatedBy;\n        address observedBy;\n        uint proposedTime; // Unix timestamp\n        uint allocationTime; // Unix timestamp\n    }\n\n    // Timeline of water allocation to beneficiaries.\n\n    mapping(uint => WaterAllocation) waterAllocationHistory;\n\n    // Water allocation new proposal\n    struct NewAllocationProposal {\n        mapping(address => uint) allocations;\n        mapping(address => bool) votes;\n        address[] beneficiaries;\n        uint[] fractions;\n        address mediatedBy;\n        address observedBy;\n        uint votingStartTime;\n        uint votingEndTime;\n        bool proposalAcceptedByBeneficiaries;        \n    }\n\n    mapping(uint => NewAllocationProposal) waterAllocationProposals;\n    uint waterAllocationProposalCurrentVersion;\n\n    modifier validRequirementUsers(address[] memory beneficiaries, address mediator, address observer) {\n        require(beneficiaries.length > 1, \"Atleast two beneficiaries required\");        \n        _;\n    }\n\n    modifier validRequirementOthers(string memory capacityUnit, uint capacity) {        \n        require(keccak256(bytes(capacityUnit)) == keccak256(bytes(\"feet\")) || \n        keccak256(bytes(capacityUnit)) == keccak256(bytes(\"meter\")), \"Reservoir capacity unit needs to be either feet or meter\");\n        require(capacity > 0, \"Reservoir capacity needs to be greater than zero\");\n        _;\n    }\n\n    modifier validRequirementsUpdateWaterLevel(address sender, uint waterLevel) {\n        User storage user = users[sender];\n        require(user.role == Role.Observer && user.isActive == true, \"Valid observer can only provide a request to update reservoir water level\");\n\n        \n        require(waterLevel > 0 && waterLevel <= totalReservoirCapacity, \"Water level needs to be greater than 0 and less than total reservoir capacity\");\n        // If waterLevel is more than total reservoir capacity it may be an emergency situtation. \n        // For now let's reduce the scope of this contract to not handle this situation.\n        // One possible way to handle possible flooding situation:- \n        // This contarct may define another state variable to emit an flood event let's say at 75% or 80% of total reservoir capacity\n        _;\n    }    \n\n    modifier validRequirementsNewAllocations(address[] memory beneficiaries, uint[] memory fractions, uint votingStartTime, uint votingEndTime, address observer, address sender) {        \n        uint i;\n        uint fractionsTotal = 0;\n\n        require(beneficiaries.length == fractions.length, \"Number of beneficiaries and allocation fraction proposals do not match\");\n\n        for(i=0; i<beneficiaries.length; ++i) {\n            require(users[beneficiaries[i]].role == Role.Beneficiary && users[beneficiaries[i]].isActive == true, string(abi.encodePacked(\"Beneficiary provided at index \", i, \" is either invalid or inactive\")));            \n        }\n\n        require(users[sender].role == Role.Mediator && users[sender].isActive == true, \"Valid mediator can only propose new water allocation scheme\");\n        require(users[observer].role == Role.Observer && users[observer].isActive == true, \"Valid observer can only participate in new water allocation scheme\");\n        if(waterAllocationProposalCurrentVersion > 0) {\n            require(waterAllocationProposals[waterAllocationProposalCurrentVersion - 1].votingEndTime < block.timestamp, \"There is another proposal currently in voting stage\");\n        }\n        \n        require(votingStartTime < votingEndTime, \"Voting end time needs to be greater than voting start time\");\n\n        for(i=0; i<fractions.length; ++i) {\n            require(fractions[i] > 0 && fractions[i] < 100, string(abi.encodePacked(\"Allocation fraction at index \", i, \" needs to be keyed in properly format\")));\n            fractionsTotal += fractions[i];\n        }\n\n        require(fractionsTotal == 100, \"Allocation fractions not summing upto one\");\n\n        _;\n    }\n\n    modifier validRequirementsVoteForNewAllocation(address sender) {\n        uint version = waterAllocationProposalCurrentVersion - 1;\n        User storage user = users[sender];\n        require(user.role == Role.Beneficiary && user.isActive == true, \"Valid beneficiary can only vote for new water allocation scheme\");\n        require(waterAllocationProposalCurrentVersion > 0, \"No allocation proposed so far. You need to wait until the mediator proposes an allocation scheme\");\n        require(waterAllocationProposals[version].votingStartTime < block.timestamp && waterAllocationProposals[version].votingEndTime > block.timestamp, \"Either voting has not begun yet or closed already.\");\n        \n        _;\n    }\n\n    modifier validRequirementsConcludeVoting(address sender) {\n\n        require(waterAllocationProposalCurrentVersion > 0, \"No allocation has been proposed yet. The mediator needs to propose an allocation scheme first.\");\n\n        NewAllocationProposal storage latestAllocationProposal = waterAllocationProposals[waterAllocationProposalCurrentVersion - 1];\n\n        require(latestAllocationProposal.mediatedBy == sender, \"Valid mediator can only conclude voting for new water allocation scheme\");\n        require(latestAllocationProposal.votingEndTime < block.timestamp, \"There is still some time left for voting to conclude. You need to wait until the voting end time proposed in the allocation scheme.\");\n\n        for(uint i=0; i<latestAllocationProposal.beneficiaries.length; ++i) {\n            require(latestAllocationProposal.votes[latestAllocationProposal.beneficiaries[i]] == true, string(abi.encodePacked(\"Beneficiary \", latestAllocationProposal.beneficiaries[i], \" has not cast their vote yet.\")));        \n        }\n        _;\n    }\n\n    event ReservoirLevelChange(uint indexed version, uint indexed waterLevel, uint indexed time);\n    event NewAllocationSchemeProposed(uint waterAllocationProposalCurrentVersion, uint indexed votingStartTime, uint indexed votingEndTime, \n    address indexed proposedBy, address observedBy);\n    event VoteForNewAllocationProposal(address indexed votedBy, uint votedAt);\n    event VotingConcluded(uint indexed waterAllocationCurrentVersion, address mediatedBy, address observedBy, \n    uint proposedTime, uint indexed allocationTime);\n\n    /*\n     * Public functions\n     */\n    /// @dev Contract constructor sets initial beneficiaries, mediator, observer, the reservoir measurement unit and total capacity\n    /// @param _beneficiaries List of countries/ states that would share the reservoir water.\n    /// @param _mediator Organization/ country/ state that would facilitate the reservoir capacity sharing agremeent among the beneficiaries\n    /// @param _observer Organizations/ entity that would engage in implementing the terms of the reservoir capacity sharing agreement\n    constructor(address _owner, address[] memory _beneficiaries, address _mediator, address _observer, \n                string memory _reservoirCapacityUnit, uint _reservoirCapacity)  public \n                validRequirementUsers (_beneficiaries, _mediator, _observer)\n                validRequirementOthers (_reservoirCapacityUnit, _reservoirCapacity) {\n\n        owner = _owner;                    \n\n        uint i;\n\n        for(i=0; i<_beneficiaries.length; i++) {\n            users[_beneficiaries[i]] = User({\n                name: '',\n                role: Role.Beneficiary,\n                isActive: true,\n                activeSince: block.timestamp\n            });\n        }\n\n        users[_mediator] = User({\n            name: '',\n            role: Role.Mediator,\n            isActive: true,\n            activeSince: block.timestamp\n        });\n\n        users[_observer] = User({\n            name: '', // Can be set later by a helper function\n            role: Role.Observer,\n            isActive: true,\n            activeSince: block.timestamp\n        });\n\n        reservoirCapacityUnit = _reservoirCapacityUnit; \n        totalReservoirCapacity = _reservoirCapacity;  \n\n        reservoirStateVersion = 0;\n        waterAllocationCurrentVersion = 0;              \n    }\n\n    /// @dev Updates the reservoir water level.\n    /// @param waterLevel Water level.\n    /// @return isSuccess A boolean indicating whether or not the update operation succeeded.\n    function updateReservoirWaterLevel(uint waterLevel) public validRequirementsUpdateWaterLevel(msg.sender, waterLevel) returns (bool isSuccess) {\n        reservoirStateHistory[reservoirStateVersion] = ReservoirState ({\n            waterLevel: waterLevel,\n            observedBy: msg.sender,\n            observedTime: block.timestamp\n        });\n        \n        emit ReservoirLevelChange(reservoirStateVersion, reservoirStateHistory[reservoirStateVersion].waterLevel, reservoirStateHistory[reservoirStateVersion].observedTime);\n\n        reservoirStateVersion = reservoirStateVersion + 1;\n\n        isSuccess = true;\n    }\n\n    function retrieveReservoirWaterLevel() public view returns (uint version, uint waterLevel, address observedBy, uint observedTime) {\n        require(reservoirStateVersion > 0, \"Reservoir water level has not been updated so far.\");\n        version = reservoirStateVersion - 1;\n        waterLevel = reservoirStateHistory[version].waterLevel;\n        observedBy = reservoirStateHistory[version].observedBy;\n        observedTime = reservoirStateHistory[version].observedTime;\n    }\n\n    /// @dev Proposes a new water allocation.\n    /// @param beneficiaries List of beneficiaries.\n    /// @param fractions List of water allocation fractions for each beneficiary in the same order as the beneficiaries list.\n    /// @param votingStartTime Unix timestamp of when the voting can begin\n    /// @param votingEndTime Unix timestamp of when the voting ends\n    /// @return isSuccess A boolean indicating whether or not the update operation succeeded.\n    function proposeNewAllocation(address[] memory beneficiaries, uint[] memory fractions, uint votingStartTime, uint votingEndTime, address observedBy) public \n    validRequirementsNewAllocations(beneficiaries, fractions, votingStartTime, votingEndTime, observedBy, msg.sender) returns (bool isSuccess) {         \n\n        waterAllocationProposals[waterAllocationProposalCurrentVersion].beneficiaries = beneficiaries; \n        waterAllocationProposals[waterAllocationProposalCurrentVersion].fractions = fractions;     \n        waterAllocationProposals[waterAllocationProposalCurrentVersion].mediatedBy = msg.sender;\n        waterAllocationProposals[waterAllocationProposalCurrentVersion].observedBy = observedBy;\n        waterAllocationProposals[waterAllocationProposalCurrentVersion].votingStartTime = votingStartTime;\n        waterAllocationProposals[waterAllocationProposalCurrentVersion].votingEndTime = votingEndTime;\n        waterAllocationProposals[waterAllocationProposalCurrentVersion].proposalAcceptedByBeneficiaries = false;                                        \n        \n        emit NewAllocationSchemeProposed(waterAllocationProposalCurrentVersion, votingStartTime, votingEndTime, msg.sender, observedBy);\n\n        waterAllocationProposalCurrentVersion = waterAllocationProposalCurrentVersion + 1;\n\n        isSuccess = true;\n    }\n\n    function retrieveAllocationProposal() public view returns \n    (uint proposalVersion, address[] memory beneficiaries, uint[] memory fractions, \n    uint votingStartTime, uint votingEndTime, address mediatedBy, address observedBy, bool[] memory votes, bool proposalAcceptedByBeneficiaries) {\n        require(waterAllocationProposalCurrentVersion > 0, \"No allocations proposed so far. Please come back here after an allocation plan is proposed.\");\n\n        proposalVersion = waterAllocationProposalCurrentVersion - 1;\n\n        // We can try to avoid this storage allocation but without this, the code to reference the latest allocation proposal looks bit messy :(\n        NewAllocationProposal storage latestAllocationProposal = waterAllocationProposals[proposalVersion];\n        votes = new bool[](latestAllocationProposal.beneficiaries.length);\n        \n        beneficiaries = latestAllocationProposal.beneficiaries;\n        fractions = latestAllocationProposal.fractions;     \n        mediatedBy = latestAllocationProposal.mediatedBy;\n        observedBy = latestAllocationProposal.observedBy;\n        votingStartTime = latestAllocationProposal.votingStartTime;\n        votingEndTime = latestAllocationProposal.votingEndTime; \n\n        for(uint i=0; i<latestAllocationProposal.beneficiaries.length; ++i) {\n            votes[i] = latestAllocationProposal.votes[latestAllocationProposal.beneficiaries[i]];\n        }\n\n        proposalAcceptedByBeneficiaries = latestAllocationProposal.proposalAcceptedByBeneficiaries;\n    }\n\n    function retrieveCurrentTimestamp() public view returns (uint currentTimestamp) {\n        currentTimestamp = block.timestamp;\n    }\n\n    function voteForNewAllocationProposal() public validRequirementsVoteForNewAllocation(msg.sender) returns (bool isSuccess) {\n        waterAllocationProposals[waterAllocationProposalCurrentVersion - 1].votes[msg.sender] = true;\n        emit VoteForNewAllocationProposal(msg.sender, block.timestamp);\n        isSuccess = true;\n    }\n\n    function concludeVoting() public validRequirementsConcludeVoting(msg.sender) returns (bool isSuccess) {\n\n        // We can try to avoid this storage allocation but without this, the code to reference the latest allocation proposal looks bit messy :(\n        NewAllocationProposal storage latestAllocationProposal = waterAllocationProposals[waterAllocationProposalCurrentVersion - 1];\n\n        for(uint i = 0; i < latestAllocationProposal.beneficiaries.length; ++i) {\n            waterAllocationHistory[waterAllocationCurrentVersion].allocations[latestAllocationProposal.beneficiaries[i]] = latestAllocationProposal.fractions[i];            \n        }\n        \n        waterAllocationHistory[waterAllocationCurrentVersion].beneficiaries = latestAllocationProposal.beneficiaries;\n        waterAllocationHistory[waterAllocationCurrentVersion].mediatedBy = latestAllocationProposal.mediatedBy;\n        waterAllocationHistory[waterAllocationCurrentVersion].observedBy = latestAllocationProposal.observedBy;\n        waterAllocationHistory[waterAllocationCurrentVersion].proposedTime = latestAllocationProposal.votingStartTime;\n        waterAllocationHistory[waterAllocationCurrentVersion].allocationTime = latestAllocationProposal.votingEndTime;        \n        latestAllocationProposal.proposalAcceptedByBeneficiaries = true;\n        \n        emit VotingConcluded(waterAllocationCurrentVersion, waterAllocationHistory[waterAllocationCurrentVersion].mediatedBy, \n        waterAllocationHistory[waterAllocationCurrentVersion].observedBy, waterAllocationHistory[waterAllocationCurrentVersion].proposedTime, \n        waterAllocationHistory[waterAllocationCurrentVersion].allocationTime);\n\n        waterAllocationCurrentVersion = waterAllocationCurrentVersion + 1;\n\n        isSuccess = true;\n    }\n\n    function retrieveWaterAllocation() public view returns \n    (uint version, address[] memory beneficiaries, uint[] memory fractions, \n    uint proposedTime, uint allocationTime, address mediatedBy, address observedBy) {\n        require(waterAllocationCurrentVersion > 0, \"Allocations agreement unavailable at the moment. Please come back here after an allocation is proposed and voting concluded for the proposal.\");\n\n        version = waterAllocationCurrentVersion - 1;\n\n        // We can try to avoid this storage allocation but without this, the code to reference the allocation plan looks bit messy :(\n        WaterAllocation storage latestAllocationPlan = waterAllocationHistory[version];\n                \n        beneficiaries = latestAllocationPlan.beneficiaries;\n        fractions = new uint[](latestAllocationPlan.beneficiaries.length);     \n        mediatedBy = latestAllocationPlan.mediatedBy;\n        observedBy = latestAllocationPlan.observedBy;\n        proposedTime = latestAllocationPlan.proposedTime;\n        allocationTime = latestAllocationPlan.allocationTime;  \n\n        for(uint i=0; i<latestAllocationPlan.beneficiaries.length; ++i) {\n            fractions[i] = latestAllocationPlan.allocations[latestAllocationPlan.beneficiaries[i]];\n        }       \n    }\n\n}",
  "sourcePath": "/home/mohan/Work/ConsensysEthereumBootcamp/fractional-water-allocation-contract/contracts/FractionalWaterAllocation.sol",
  "compiler": {
    "name": "solc",
    "version": "0.5.16+commit.9c3226ce.Emscripten.clang"
  },
  "schemaVersion": "3.3.2",
  "updatedAt": "2020-12-18T05:01:38.088Z",
  "networkType": "ethereum",
  "devdoc": {
    "methods": {
      "constructor": {
        "details": "Contract constructor sets initial beneficiaries, mediator, observer, the reservoir measurement unit and total capacity",
        "params": {
          "_beneficiaries": "List of countries/ states that would share the reservoir water.",
          "_mediator": "Organization/ country/ state that would facilitate the reservoir capacity sharing agremeent among the beneficiaries",
          "_observer": "Organizations/ entity that would engage in implementing the terms of the reservoir capacity sharing agreement"
        }
      },
      "proposeNewAllocation(address[],uint256[],uint256,uint256,address)": {
        "details": "Proposes a new water allocation.",
        "params": {
          "beneficiaries": "List of beneficiaries.",
          "fractions": "List of water allocation fractions for each beneficiary in the same order as the beneficiaries list.",
          "votingEndTime": "Unix timestamp of when the voting ends",
          "votingStartTime": "Unix timestamp of when the voting can begin"
        },
        "return": "isSuccess A boolean indicating whether or not the update operation succeeded."
      },
      "updateReservoirWaterLevel(uint256)": {
        "details": "Updates the reservoir water level.",
        "params": {
          "waterLevel": "Water level."
        },
        "return": "isSuccess A boolean indicating whether or not the update operation succeeded."
      }
    }
  },
  "userdoc": {
    "methods": {}
  }
}